{"contracts/OrderReceipt.sol":{"OrderReceipt":{"abi":[{"anonymous":false,"inputs":[{"indexed":true,"internalType":"uint256","name":"orderId","type":"uint256"},{"indexed":false,"internalType":"string","name":"buyerHash","type":"string"},{"indexed":false,"internalType":"uint256","name":"totalCents","type":"uint256"},{"indexed":false,"internalType":"uint256","name":"itemCount","type":"uint256"},{"indexed":false,"internalType":"string","name":"orderHash","type":"string"},{"indexed":false,"internalType":"uint256","name":"timestamp","type":"uint256"}],"name":"OrderPlaced","type":"event"},{"inputs":[{"internalType":"uint256","name":"_orderId","type":"uint256"},{"internalType":"string","name":"_buyerHash","type":"string"},{"internalType":"uint256","name":"_totalCents","type":"uint256"},{"internalType":"uint256","name":"_itemCount","type":"uint256"},{"internalType":"string","name":"_orderHash","type":"string"}],"name":"createReceipt","outputs":[],"stateMutability":"nonpayable","type":"function"},{"inputs":[],"name":"getReceiptCount","outputs":[{"internalType":"uint256","name":"","type":"uint256"}],"stateMutability":"view","type":"function"},{"inputs":[{"internalType":"uint256","name":"","type":"uint256"}],"name":"receipts","outputs":[{"internalType":"uint256","name":"orderId","type":"uint256"},{"internalType":"string","name":"buyerHash","type":"string"},{"internalType":"uint256","name":"totalCents","type":"uint256"},{"internalType":"uint256","name":"itemCount","type":"uint256"},{"internalType":"string","name":"orderHash","type":"string"},{"internalType":"uint256","name":"timestamp","type":"uint256"}],"stateMutability":"view","type":"function"}],"evm":{"bytecode":{"linkReferences":{},"object":"608060405234801561001057600080fd5b50610a15806100206000396000f3fe608060405234801561001057600080fd5b50600436106100415760003560e01c8063040875fc146100465780630f7ee1ec14610064578063121bb52114610099575b600080fd5b61004e6100b5565b60405161005b9190610331565b60405180910390f35b61007e6004803603810190610079919061038c565b6100c1565b60405161009096959493929190610449565b60405180910390f35b6100b360048036038101906100ae91906105ed565b61021d565b005b60008080549050905090565b600081815481106100d157600080fd5b90600052602060002090600602016000915090508060000154908060010180546100fa906106cf565b80601f0160208091040260200160405190810160405280929190818152602001828054610126906106cf565b80156101735780601f1061014857610100808354040283529160200191610173565b820191906000526020600020905b81548152906001019060200180831161015657829003601f168201915b505050505090806002015490806003015490806004018054610194906106cf565b80601f01602080910402602001604051908101604052809291908181526020018280546101c0906106cf565b801561020d5780601f106101e25761010080835404028352916020019161020d565b820191906000526020600020905b8154815290600101906020018083116101f057829003601f168201915b5050505050908060050154905086565b600042905060006040518060c0016040528088815260200187815260200186815260200185815260200184815260200183815250908060018154018082558091505060019003906000526020600020906006020160009091909190915060008201518160000155602082015181600101908161029991906108ac565b50604082015181600201556060820151816003015560808201518160040190816102c391906108ac565b5060a082015181600501555050857f29f7ce7f699cb480248dc8a1f211577ea5686e79c632f3668da0a96ebb68b8e0868686868660405161030895949392919061097e565b60405180910390a2505050505050565b6000819050919050565b61032b81610318565b82525050565b60006020820190506103466000830184610322565b92915050565b6000604051905090565b600080fd5b600080fd5b61036981610318565b811461037457600080fd5b50565b60008135905061038681610360565b92915050565b6000602082840312156103a2576103a1610356565b5b60006103b084828501610377565b91505092915050565b600081519050919050565b600082825260208201905092915050565b60005b838110156103f35780820151818401526020810190506103d8565b60008484015250505050565b6000601f19601f8301169050919050565b600061041b826103b9565b61042581856103c4565b93506104358185602086016103d5565b61043e816103ff565b840191505092915050565b600060c08201905061045e6000830189610322565b81810360208301526104708188610410565b905061047f6040830187610322565b61048c6060830186610322565b818103608083015261049e8185610410565b90506104ad60a0830184610322565b979650505050505050565b600080fd5b600080fd5b7f4e487b7100000000000000000000000000000000000000000000000000000000600052604160045260246000fd5b6104fa826103ff565b810181811067ffffffffffffffff82111715610519576105186104c2565b5b80604052505050565b600061052c61034c565b905061053882826104f1565b919050565b600067ffffffffffffffff821115610558576105576104c2565b5b610561826103ff565b9050602081019050919050565b82818337600083830152505050565b600061059061058b8461053d565b610522565b9050828152602081018484840111156105ac576105ab6104bd565b5b6105b784828561056e565b509392505050565b600082601f8301126105d4576105d36104b8565b5b81356105e484826020860161057d565b91505092915050565b600080600080600060a0868803121561060957610608610356565b5b600061061788828901610377565b955050602086013567ffffffffffffffff8111156106385761063761035b565b5b610644888289016105bf565b945050604061065588828901610377565b935050606061066688828901610377565b925050608086013567ffffffffffffffff8111156106875761068661035b565b5b610693888289016105bf565b9150509295509295909350565b7f4e487b7100000000000000000000000000000000000000000000000000000000600052602260045260246000fd5b600060028204905060018216806106e757607f821691505b6020821081036106fa576106f96106a0565b5b50919050565b60008190508160005260206000209050919050565b60006020601f8301049050919050565b600082821b905092915050565b6000600883026107627fffffffffffffffffffffffffffffffffffffffffffffffffffffffffffffffff82610725565b61076c8683610725565b95508019841693508086168417925050509392505050565b6000819050919050565b60006107a96107a461079f84610318565b610784565b610318565b9050919050565b6000819050919050565b6107c38361078e565b6107d76107cf826107b0565b848454610732565b825550505050565b600090565b6107ec6107df565b6107f78184846107ba565b505050565b5b8181101561081b576108106000826107e4565b6001810190506107fd565b5050565b601f8211156108605761083181610700565b61083a84610715565b81016020851015610849578190505b61085d61085585610715565b8301826107fc565b50505b505050565b600082821c905092915050565b600061088360001984600802610865565b1980831691505092915050565b600061089c8383610872565b9150826002028217905092915050565b6108b5826103b9565b67ffffffffffffffff8111156108ce576108cd6104c2565b5b6108d882546106cf565b6108e382828561081f565b600060209050601f8311600181146109165760008415610904578287015190505b61090e8582610890565b865550610976565b601f19841661092486610700565b60005b8281101561094c57848901518255600182019150602085019450602081019050610927565b868310156109695784890151610965601f891682610872565b8355505b6001600288020188555050505b505050505050565b600060a08201905081810360008301526109988188610410565b90506109a76020830187610322565b6109b46040830186610322565b81810360608301526109c68185610410565b90506109d56080830184610322565b969550505050505056fea264697066735822122000b02d523bb1cee5d9d21aab7086209d3f7267eac798a5c2ec7a1afb81ad657564736f6c63430008140033","opcodes":"PUSH1 0x80 PUSH1 0x40 MSTORE CALLVALUE DUP1 ISZERO PUSH2 0x10 JUMPI PUSH1 0x0 DUP1 REVERT JUMPDEST POP PUSH2 0xA15 DUP1 PUSH2 0x20 PUSH1 0x0 CODECOPY PUSH1 0x0 RETURN INVALID PUSH1 0x80 PUSH1 0x40 MSTORE CALLVALUE DUP1 ISZERO PUSH2 0x10 JUMPI PUSH1 0x0 DUP1 REVERT JUMPDEST POP PUSH1 0x4 CALLDATASIZE LT PUSH2 0x41 JUMPI PUSH1 0x0 CALLDATALOAD PUSH1 0xE0 SHR DUP1 PUSH4 0x40875FC EQ PUSH2 0x46 JUMPI DUP1 PUSH4 0xF7EE1EC EQ PUSH2 0x64 JUMPI DUP1 PUSH4 0x121BB521 EQ PUSH2 0x99 JUMPI JUMPDEST PUSH1 0x0 DUP1 REVERT JUMPDEST PUSH2 0x4E PUSH2 0xB5 JUMP JUMPDEST PUSH1 0x40 MLOAD PUSH2 0x5B SWAP2 SWAP1 PUSH2 0x331 JUMP JUMPDEST PUSH1 0x40 MLOAD DUP1 SWAP2 SUB SWAP1 RETURN JUMPDEST PUSH2 0x7E PUSH1 0x4 DUP1 CALLDATASIZE SUB DUP2 ADD SWAP1 PUSH2 0x79 SWAP2 SWAP1 PUSH2 0x38C JUMP JUMPDEST PUSH2 0xC1 JUMP JUMPDEST PUSH1 0x40 MLOAD PUSH2 0x90 SWAP7 SWAP6 SWAP5 SWAP4 SWAP3 SWAP2 SWAP1 PUSH2 0x449 JUMP JUMPDEST PUSH1 0x40 MLOAD DUP1 SWAP2 SUB SWAP1 RETURN JUMPDEST PUSH2 0xB3 PUSH1 0x4 DUP1 CALLDATASIZE SUB DUP2 ADD SWAP1 PUSH2 0xAE SWAP2 SWAP1 PUSH2 0x5ED JUMP JUMPDEST PUSH2 0x21D JUMP JUMPDEST STOP JUMPDEST PUSH1 0x0 DUP1 DUP1 SLOAD SWAP1 POP SWAP1 POP SWAP1 JUMP JUMPDEST PUSH1 0x0 DUP2 DUP2 SLOAD DUP2 LT PUSH2 0xD1 JUMPI PUSH1 0x0 DUP1 REVERT JUMPDEST SWAP1 PUSH1 0x0 MSTORE PUSH1 0x20 PUSH1 0x0 KECCAK256 SWAP1 PUSH1 0x6 MUL ADD PUSH1 0x0 SWAP2 POP SWAP1 POP DUP1 PUSH1 0x0 ADD SLOAD SWAP1 DUP1 PUSH1 0x1 ADD DUP1 SLOAD PUSH2 0xFA SWAP1 PUSH2 0x6CF JUMP JUMPDEST DUP1 PUSH1 0x1F ADD PUSH1 0x20 DUP1 SWAP2 DIV MUL PUSH1 0x20 ADD PUSH1 0x40 MLOAD SWAP1 DUP2 ADD PUSH1 0x40 MSTORE DUP1 SWAP3 SWAP2 SWAP1 DUP2 DUP2 MSTORE PUSH1 0x20 ADD DUP3 DUP1 SLOAD PUSH2 0x126 SWAP1 PUSH2 0x6CF JUMP JUMPDEST DUP1 ISZERO PUSH2 0x173 JUMPI DUP1 PUSH1 0x1F LT PUSH2 0x148 JUMPI PUSH2 0x100 DUP1 DUP4 SLOAD DIV MUL DUP4 MSTORE SWAP2 PUSH1 0x20 ADD SWAP2 PUSH2 0x173 JUMP JUMPDEST DUP3 ADD SWAP2 SWAP1 PUSH1 0x0 MSTORE PUSH1 0x20 PUSH1 0x0 KECCAK256 SWAP1 JUMPDEST DUP2 SLOAD DUP2 MSTORE SWAP1 PUSH1 0x1 ADD SWAP1 PUSH1 0x20 ADD DUP1 DUP4 GT PUSH2 0x156 JUMPI DUP3 SWAP1 SUB PUSH1 0x1F AND DUP3 ADD SWAP2 JUMPDEST POP POP POP POP POP SWAP1 DUP1 PUSH1 0x2 ADD SLOAD SWAP1 DUP1 PUSH1 0x3 ADD SLOAD SWAP1 DUP1 PUSH1 0x4 ADD DUP1 SLOAD PUSH2 0x194 SWAP1 PUSH2 0x6CF JUMP JUMPDEST DUP1 PUSH1 0x1F ADD PUSH1 0x20 DUP1 SWAP2 DIV MUL PUSH1 0x20 ADD PUSH1 0x40 MLOAD SWAP1 DUP2 ADD PUSH1 0x40 MSTORE DUP1 SWAP3 SWAP2 SWAP1 DUP2 DUP2 MSTORE PUSH1 0x20 ADD DUP3 DUP1 SLOAD PUSH2 0x1C0 SWAP1 PUSH2 0x6CF JUMP JUMPDEST DUP1 ISZERO PUSH2 0x20D JUMPI DUP1 PUSH1 0x1F LT PUSH2 0x1E2 JUMPI PUSH2 0x100 DUP1 DUP4 SLOAD DIV MUL DUP4 MSTORE SWAP2 PUSH1 0x20 ADD SWAP2 PUSH2 0x20D JUMP JUMPDEST DUP3 ADD SWAP2 SWAP1 PUSH1 0x0 MSTORE PUSH1 0x20 PUSH1 0x0 KECCAK256 SWAP1 JUMPDEST DUP2 SLOAD DUP2 MSTORE SWAP1 PUSH1 0x1 ADD SWAP1 PUSH1 0x20 ADD DUP1 DUP4 GT PUSH2 0x1F0 JUMPI DUP3 SWAP1 SUB PUSH1 0x1F AND DUP3 ADD SWAP2 JUMPDEST POP POP POP POP POP SWAP1 DUP1 PUSH1 0x5 ADD SLOAD SWAP1 POP DUP7 JUMP JUMPDEST PUSH1 0x0 TIMESTAMP SWAP1 POP PUSH1 0x0 PUSH1 0x40 MLOAD DUP1 PUSH1 0xC0 ADD PUSH1 0x40 MSTORE DUP1 DUP9 DUP2 MSTORE PUSH1 0x20 ADD DUP8 DUP2 MSTORE PUSH1 0x20 ADD DUP7 DUP2 MSTORE PUSH1 0x20 ADD DUP6 DUP2 MSTORE PUSH1 0x20 ADD DUP5 DUP2 MSTORE PUSH1 0x20 ADD DUP4 DUP2 MSTORE POP SWAP1 DUP1 PUSH1 0x1 DUP2 SLOAD ADD DUP1 DUP3 SSTORE DUP1 SWAP2 POP POP PUSH1 0x1 SWAP1 SUB SWAP1 PUSH1 0x0 MSTORE PUSH1 0x20 PUSH1 0x0 KECCAK256 SWAP1 PUSH1 0x6 MUL ADD PUSH1 0x0 SWAP1 SWAP2 SWAP1 SWAP2 SWAP1 SWAP2 POP PUSH1 0x0 DUP3 ADD MLOAD DUP2 PUSH1 0x0 ADD SSTORE PUSH1 0x20 DUP3 ADD MLOAD DUP2 PUSH1 0x1 ADD SWAP1 DUP2 PUSH2 0x299 SWAP2 SWAP1 PUSH2 0x8AC JUMP JUMPDEST POP PUSH1 0x40 DUP3 ADD MLOAD DUP2 PUSH1 0x2 ADD SSTORE PUSH1 0x60 DUP3 ADD MLOAD DUP2 PUSH1 0x3 ADD SSTORE PUSH1 0x80 DUP3 ADD MLOAD DUP2 PUSH1 0x4 ADD SWAP1 DUP2 PUSH2 0x2C3 SWAP2 SWAP1 PUSH2 0x8AC JUMP JUMPDEST POP PUSH1 0xA0 DUP3 ADD MLOAD DUP2 PUSH1 0x5 ADD SSTORE POP POP DUP6 PUSH32 0x29F7CE7F699CB480248DC8A1F211577EA5686E79C632F3668DA0A96EBB68B8E0 DUP7 DUP7 DUP7 DUP7 DUP7 PUSH1 0x40 MLOAD PUSH2 0x308 SWAP6 SWAP5 SWAP4 SWAP3 SWAP2 SWAP1 PUSH2 0x97E JUMP JUMPDEST PUSH1 0x40 MLOAD DUP1 SWAP2 SUB SWAP1 LOG2 POP POP POP POP POP POP JUMP JUMPDEST PUSH1 0x0 DUP2 SWAP1 POP SWAP2 SWAP1 POP JUMP JUMPDEST PUSH2 0x32B DUP2 PUSH2 0x318 JUMP JUMPDEST DUP3 MSTORE POP POP JUMP JUMPDEST PUSH1 0x0 PUSH1 0x20 DUP3 ADD SWAP1 POP PUSH2 0x346 PUSH1 0x0 DUP4 ADD DUP5 PUSH2 0x322 JUMP JUMPDEST SWAP3 SWAP2 POP POP JUMP JUMPDEST PUSH1 0x0 PUSH1 0x40 MLOAD SWAP1 POP SWAP1 JUMP JUMPDEST PUSH1 0x0 DUP1 REVERT JUMPDEST PUSH1 0x0 DUP1 REVERT JUMPDEST PUSH2 0x369 DUP2 PUSH2 0x318 JUMP JUMPDEST DUP2 EQ PUSH2 0x374 JUMPI PUSH1 0x0 DUP1 REVERT JUMPDEST POP JUMP JUMPDEST PUSH1 0x0 DUP2 CALLDATALOAD SWAP1 POP PUSH2 0x386 DUP2 PUSH2 0x360 JUMP JUMPDEST SWAP3 SWAP2 POP POP JUMP JUMPDEST PUSH1 0x0 PUSH1 0x20 DUP3 DUP5 SUB SLT ISZERO PUSH2 0x3A2 JUMPI PUSH2 0x3A1 PUSH2 0x356 JUMP JUMPDEST JUMPDEST PUSH1 0x0 PUSH2 0x3B0 DUP5 DUP3 DUP6 ADD PUSH2 0x377 JUMP JUMPDEST SWAP2 POP POP SWAP3 SWAP2 POP POP JUMP JUMPDEST PUSH1 0x0 DUP2 MLOAD SWAP1 POP SWAP2 SWAP1 POP JUMP JUMPDEST PUSH1 0x0 DUP3 DUP3 MSTORE PUSH1 0x20 DUP3 ADD SWAP1 POP SWAP3 SWAP2 POP POP JUMP JUMPDEST PUSH1 0x0 JUMPDEST DUP4 DUP2 LT ISZERO PUSH2 0x3F3 JUMPI DUP1 DUP3 ADD MLOAD DUP2 DUP5 ADD MSTORE PUSH1 0x20 DUP2 ADD SWAP1 POP PUSH2 0x3D8 JUMP JUMPDEST PUSH1 0x0 DUP5 DUP5 ADD MSTORE POP POP POP POP JUMP JUMPDEST PUSH1 0x0 PUSH1 0x1F NOT PUSH1 0x1F DUP4 ADD AND SWAP1 POP SWAP2 SWAP1 POP JUMP JUMPDEST PUSH1 0x0 PUSH2 0x41B DUP3 PUSH2 0x3B9 JUMP JUMPDEST PUSH2 0x425 DUP2 DUP6 PUSH2 0x3C4 JUMP JUMPDEST SWAP4 POP PUSH2 0x435 DUP2 DUP6 PUSH1 0x20 DUP7 ADD PUSH2 0x3D5 JUMP JUMPDEST PUSH2 0x43E DUP2 PUSH2 0x3FF JUMP JUMPDEST DUP5 ADD SWAP2 POP POP SWAP3 SWAP2 POP POP JUMP JUMPDEST PUSH1 0x0 PUSH1 0xC0 DUP3 ADD SWAP1 POP PUSH2 0x45E PUSH1 0x0 DUP4 ADD DUP10 PUSH2 0x322 JUMP JUMPDEST DUP2 DUP2 SUB PUSH1 0x20 DUP4 ADD MSTORE PUSH2 0x470 DUP2 DUP9 PUSH2 0x410 JUMP JUMPDEST SWAP1 POP PUSH2 0x47F PUSH1 0x40 DUP4 ADD DUP8 PUSH2 0x322 JUMP JUMPDEST PUSH2 0x48C PUSH1 0x60 DUP4 ADD DUP7 PUSH2 0x322 JUMP JUMPDEST DUP2 DUP2 SUB PUSH1 0x80 DUP4 ADD MSTORE PUSH2 0x49E DUP2 DUP6 PUSH2 0x410 JUMP JUMPDEST SWAP1 POP PUSH2 0x4AD PUSH1 0xA0 DUP4 ADD DUP5 PUSH2 0x322 JUMP JUMPDEST SWAP8 SWAP7 POP POP POP POP POP POP POP JUMP JUMPDEST PUSH1 0x0 DUP1 REVERT JUMPDEST PUSH1 0x0 DUP1 REVERT JUMPDEST PUSH32 0x4E487B7100000000000000000000000000000000000000000000000000000000 PUSH1 0x0 MSTORE PUSH1 0x41 PUSH1 0x4 MSTORE PUSH1 0x24 PUSH1 0x0 REVERT JUMPDEST PUSH2 0x4FA DUP3 PUSH2 0x3FF JUMP JUMPDEST DUP2 ADD DUP2 DUP2 LT PUSH8 0xFFFFFFFFFFFFFFFF DUP3 GT OR ISZERO PUSH2 0x519 JUMPI PUSH2 0x518 PUSH2 0x4C2 JUMP JUMPDEST JUMPDEST DUP1 PUSH1 0x40 MSTORE POP POP POP JUMP JUMPDEST PUSH1 0x0 PUSH2 0x52C PUSH2 0x34C JUMP JUMPDEST SWAP1 POP PUSH2 0x538 DUP3 DUP3 PUSH2 0x4F1 JUMP JUMPDEST SWAP2 SWAP1 POP JUMP JUMPDEST PUSH1 0x0 PUSH8 0xFFFFFFFFFFFFFFFF DUP3 GT ISZERO PUSH2 0x558 JUMPI PUSH2 0x557 PUSH2 0x4C2 JUMP JUMPDEST JUMPDEST PUSH2 0x561 DUP3 PUSH2 0x3FF JUMP JUMPDEST SWAP1 POP PUSH1 0x20 DUP2 ADD SWAP1 POP SWAP2 SWAP1 POP JUMP JUMPDEST DUP3 DUP2 DUP4 CALLDATACOPY PUSH1 0x0 DUP4 DUP4 ADD MSTORE POP POP POP JUMP JUMPDEST PUSH1 0x0 PUSH2 0x590 PUSH2 0x58B DUP5 PUSH2 0x53D JUMP JUMPDEST PUSH2 0x522 JUMP JUMPDEST SWAP1 POP DUP3 DUP2 MSTORE PUSH1 0x20 DUP2 ADD DUP5 DUP5 DUP5 ADD GT ISZERO PUSH2 0x5AC JUMPI PUSH2 0x5AB PUSH2 0x4BD JUMP JUMPDEST JUMPDEST PUSH2 0x5B7 DUP5 DUP3 DUP6 PUSH2 0x56E JUMP JUMPDEST POP SWAP4 SWAP3 POP POP POP JUMP JUMPDEST PUSH1 0x0 DUP3 PUSH1 0x1F DUP4 ADD SLT PUSH2 0x5D4 JUMPI PUSH2 0x5D3 PUSH2 0x4B8 JUMP JUMPDEST JUMPDEST DUP2 CALLDATALOAD PUSH2 0x5E4 DUP5 DUP3 PUSH1 0x20 DUP7 ADD PUSH2 0x57D JUMP JUMPDEST SWAP2 POP POP SWAP3 SWAP2 POP POP JUMP JUMPDEST PUSH1 0x0 DUP1 PUSH1 0x0 DUP1 PUSH1 0x0 PUSH1 0xA0 DUP7 DUP9 SUB SLT ISZERO PUSH2 0x609 JUMPI PUSH2 0x608 PUSH2 0x356 JUMP JUMPDEST JUMPDEST PUSH1 0x0 PUSH2 0x617 DUP9 DUP3 DUP10 ADD PUSH2 0x377 JUMP JUMPDEST SWAP6 POP POP PUSH1 0x20 DUP7 ADD CALLDATALOAD PUSH8 0xFFFFFFFFFFFFFFFF DUP2 GT ISZERO PUSH2 0x638 JUMPI PUSH2 0x637 PUSH2 0x35B JUMP JUMPDEST JUMPDEST PUSH2 0x644 DUP9 DUP3 DUP10 ADD PUSH2 0x5BF JUMP JUMPDEST SWAP5 POP POP PUSH1 0x40 PUSH2 0x655 DUP9 DUP3 DUP10 ADD PUSH2 0x377 JUMP JUMPDEST SWAP4 POP POP PUSH1 0x60 PUSH2 0x666 DUP9 DUP3 DUP10 ADD PUSH2 0x377 JUMP JUMPDEST SWAP3 POP POP PUSH1 0x80 DUP7 ADD CALLDATALOAD PUSH8 0xFFFFFFFFFFFFFFFF DUP2 GT ISZERO PUSH2 0x687 JUMPI PUSH2 0x686 PUSH2 0x35B JUMP JUMPDEST JUMPDEST PUSH2 0x693 DUP9 DUP3 DUP10 ADD PUSH2 0x5BF JUMP JUMPDEST SWAP2 POP POP SWAP3 SWAP6 POP SWAP3 SWAP6 SWAP1 SWAP4 POP JUMP JUMPDEST PUSH32 0x4E487B7100000000000000000000000000000000000000000000000000000000 PUSH1 0x0 MSTORE PUSH1 0x22 PUSH1 0x4 MSTORE PUSH1 0x24 PUSH1 0x0 REVERT JUMPDEST PUSH1 0x0 PUSH1 0x2 DUP3 DIV SWAP1 POP PUSH1 0x1 DUP3 AND DUP1 PUSH2 0x6E7 JUMPI PUSH1 0x7F DUP3 AND SWAP2 POP JUMPDEST PUSH1 0x20 DUP3 LT DUP2 SUB PUSH2 0x6FA JUMPI PUSH2 0x6F9 PUSH2 0x6A0 JUMP JUMPDEST JUMPDEST POP SWAP2 SWAP1 POP JUMP JUMPDEST PUSH1 0x0 DUP2 SWAP1 POP DUP2 PUSH1 0x0 MSTORE PUSH1 0x20 PUSH1 0x0 KECCAK256 SWAP1 POP SWAP2 SWAP1 POP JUMP JUMPDEST PUSH1 0x0 PUSH1 0x20 PUSH1 0x1F DUP4 ADD DIV SWAP1 POP SWAP2 SWAP1 POP JUMP JUMPDEST PUSH1 0x0 DUP3 DUP3 SHL SWAP1 POP SWAP3 SWAP2 POP POP JUMP JUMPDEST PUSH1 0x0 PUSH1 0x8 DUP4 MUL PUSH2 0x762 PUSH32 0xFFFFFFFFFFFFFFFFFFFFFFFFFFFFFFFFFFFFFFFFFFFFFFFFFFFFFFFFFFFFFFFF DUP3 PUSH2 0x725 JUMP JUMPDEST PUSH2 0x76C DUP7 DUP4 PUSH2 0x725 JUMP JUMPDEST SWAP6 POP DUP1 NOT DUP5 AND SWAP4 POP DUP1 DUP7 AND DUP5 OR SWAP3 POP POP POP SWAP4 SWAP3 POP POP POP JUMP JUMPDEST PUSH1 0x0 DUP2 SWAP1 POP SWAP2 SWAP1 POP JUMP JUMPDEST PUSH1 0x0 PUSH2 0x7A9 PUSH2 0x7A4 PUSH2 0x79F DUP5 PUSH2 0x318 JUMP JUMPDEST PUSH2 0x784 JUMP JUMPDEST PUSH2 0x318 JUMP JUMPDEST SWAP1 POP SWAP2 SWAP1 POP JUMP JUMPDEST PUSH1 0x0 DUP2 SWAP1 POP SWAP2 SWAP1 POP JUMP JUMPDEST PUSH2 0x7C3 DUP4 PUSH2 0x78E JUMP JUMPDEST PUSH2 0x7D7 PUSH2 0x7CF DUP3 PUSH2 0x7B0 JUMP JUMPDEST DUP5 DUP5 SLOAD PUSH2 0x732 JUMP JUMPDEST DUP3 SSTORE POP POP POP POP JUMP JUMPDEST PUSH1 0x0 SWAP1 JUMP JUMPDEST PUSH2 0x7EC PUSH2 0x7DF JUMP JUMPDEST PUSH2 0x7F7 DUP2 DUP5 DUP5 PUSH2 0x7BA JUMP JUMPDEST POP POP POP JUMP JUMPDEST JUMPDEST DUP2 DUP2 LT ISZERO PUSH2 0x81B JUMPI PUSH2 0x810 PUSH1 0x0 DUP3 PUSH2 0x7E4 JUMP JUMPDEST PUSH1 0x1 DUP2 ADD SWAP1 POP PUSH2 0x7FD JUMP JUMPDEST POP POP JUMP JUMPDEST PUSH1 0x1F DUP3 GT ISZERO PUSH2 0x860 JUMPI PUSH2 0x831 DUP2 PUSH2 0x700 JUMP JUMPDEST PUSH2 0x83A DUP5 PUSH2 0x715 JUMP JUMPDEST DUP2 ADD PUSH1 0x20 DUP6 LT ISZERO PUSH2 0x849 JUMPI DUP2 SWAP1 POP JUMPDEST PUSH2 0x85D PUSH2 0x855 DUP6 PUSH2 0x715 JUMP JUMPDEST DUP4 ADD DUP3 PUSH2 0x7FC JUMP JUMPDEST POP POP JUMPDEST POP POP POP JUMP JUMPDEST PUSH1 0x0 DUP3 DUP3 SHR SWAP1 POP SWAP3 SWAP2 POP POP JUMP JUMPDEST PUSH1 0x0 PUSH2 0x883 PUSH1 0x0 NOT DUP5 PUSH1 0x8 MUL PUSH2 0x865 JUMP JUMPDEST NOT DUP1 DUP4 AND SWAP2 POP POP SWAP3 SWAP2 POP POP JUMP JUMPDEST PUSH1 0x0 PUSH2 0x89C DUP4 DUP4 PUSH2 0x872 JUMP JUMPDEST SWAP2 POP DUP3 PUSH1 0x2 MUL DUP3 OR SWAP1 POP SWAP3 SWAP2 POP POP JUMP JUMPDEST PUSH2 0x8B5 DUP3 PUSH2 0x3B9 JUMP JUMPDEST PUSH8 0xFFFFFFFFFFFFFFFF DUP2 GT ISZERO PUSH2 0x8CE JUMPI PUSH2 0x8CD PUSH2 0x4C2 JUMP JUMPDEST JUMPDEST PUSH2 0x8D8 DUP3 SLOAD PUSH2 0x6CF JUMP JUMPDEST PUSH2 0x8E3 DUP3 DUP3 DUP6 PUSH2 0x81F JUMP JUMPDEST PUSH1 0x0 PUSH1 0x20 SWAP1 POP PUSH1 0x1F DUP4 GT PUSH1 0x1 DUP2 EQ PUSH2 0x916 JUMPI PUSH1 0x0 DUP5 ISZERO PUSH2 0x904 JUMPI DUP3 DUP8 ADD MLOAD SWAP1 POP JUMPDEST PUSH2 0x90E DUP6 DUP3 PUSH2 0x890 JUMP JUMPDEST DUP7 SSTORE POP PUSH2 0x976 JUMP JUMPDEST PUSH1 0x1F NOT DUP5 AND PUSH2 0x924 DUP7 PUSH2 0x700 JUMP JUMPDEST PUSH1 0x0 JUMPDEST DUP3 DUP2 LT ISZERO PUSH2 0x94C JUMPI DUP5 DUP10 ADD MLOAD DUP3 SSTORE PUSH1 0x1 DUP3 ADD SWAP2 POP PUSH1 0x20 DUP6 ADD SWAP5 POP PUSH1 0x20 DUP2 ADD SWAP1 POP PUSH2 0x927 JUMP JUMPDEST DUP7 DUP4 LT ISZERO PUSH2 0x969 JUMPI DUP5 DUP10 ADD MLOAD PUSH2 0x965 PUSH1 0x1F DUP10 AND DUP3 PUSH2 0x872 JUMP JUMPDEST DUP4 SSTORE POP JUMPDEST PUSH1 0x1 PUSH1 0x2 DUP9 MUL ADD DUP9 SSTORE POP POP POP JUMPDEST POP POP POP POP POP POP JUMP JUMPDEST PUSH1 0x0 PUSH1 0xA0 DUP3 ADD SWAP1 POP DUP2 DUP2 SUB PUSH1 0x0 DUP4 ADD MSTORE PUSH2 0x998 DUP2 DUP9 PUSH2 0x410 JUMP JUMPDEST SWAP1 POP PUSH2 0x9A7 PUSH1 0x20 DUP4 ADD DUP8 PUSH2 0x322 JUMP JUMPDEST PUSH2 0x9B4 PUSH1 0x40 DUP4 ADD DUP7 PUSH2 0x322 JUMP JUMPDEST DUP2 DUP2 SUB PUSH1 0x60 DUP4 ADD MSTORE PUSH2 0x9C6 DUP2 DUP6 PUSH2 0x410 JUMP JUMPDEST SWAP1 POP PUSH2 0x9D5 PUSH1 0x80 DUP4 ADD DUP5 PUSH2 0x322 JUMP JUMPDEST SWAP7 SWAP6 POP POP POP POP POP POP JUMP INVALID LOG2 PUSH5 0x6970667358 0x22 SLT KECCAK256 STOP 0xB0 0x2D MSTORE EXTCODESIZE 0xB1 0xCE 0xE5 0xD9 0xD2 BYTE 0xAB PUSH17 0x86209D3F7267EAC798A5C2EC7A1AFB81AD PUSH6 0x7564736F6C63 NUMBER STOP ADDMOD EQ STOP CALLER "},"methodIdentifiers":{"createReceipt(uint256,string,uint256,uint256,string)":"121bb521","getReceiptCount()":"040875fc","receipts(uint256)":"0f7ee1ec"}}}}}