{
  "_format": "hh-sol-artifact-1",
  "contractName": "OrderReceipt",
  "sourceName": "contracts/OrderReceipt.sol",
  "abi": [
    {
      "anonymous": false,
      "inputs": [
        {
          "indexed": true,
          "internalType": "uint256",
          "name": "orderId",
          "type": "uint256"
        },
        {
          "indexed": false,
          "internalType": "string",
          "name": "buyerHash",
          "type": "string"
        },
        {
          "indexed": false,
          "internalType": "uint256",
          "name": "totalCents",
          "type": "uint256"
        },
        {
          "indexed": false,
          "internalType": "uint256",
          "name": "itemCount",
          "type": "uint256"
        },
        {
          "indexed": false,
          "internalType": "string",
          "name": "orderHash",
          "type": "string"
        },
        {
          "indexed": false,
          "internalType": "uint256",
          "name": "timestamp",
          "type": "uint256"
        }
      ],
      "name": "OrderPlaced",
      "type": "event"
    },
    {
      "inputs": [
        {
          "internalType": "uint256",
          "name": "_orderId",
          "type": "uint256"
        },
        {
          "internalType": "string",
          "name": "_buyerHash",
          "type": "string"
        },
        {
          "internalType": "uint256",
          "name": "_totalCents",
          "type": "uint256"
        },
        {
          "internalType": "uint256",
          "name": "_itemCount",
          "type": "uint256"
        },
        {
          "internalType": "string",
          "name": "_orderHash",
          "type": "string"
        }
      ],
      "name": "createReceipt",
      "outputs": [],
      "stateMutability": "nonpayable",
      "type": "function"
    },
    {
      "inputs": [],
      "name": "getReceiptCount",
      "outputs": [
        {
          "internalType": "uint256",
          "name": "",
          "type": "uint256"
        }
      ],
      "stateMutability": "view",
      "type": "function"
    },
    {
      "inputs": [
        {
          "internalType": "uint256",
          "name": "",
          "type": "uint256"
        }
      ],
      "name": "receipts",
      "outputs": [
        {
          "internalType": "uint256",
          "name": "orderId",
          "type": "uint256"
        },
        {
          "internalType": "string",
          "name": "buyerHash",
          "type": "string"
        },
        {
          "internalType": "uint256",
          "name": "totalCents",
          "type": "uint256"
        },
        {
          "internalType": "uint256",
          "name": "itemCount",
          "type": "uint256"
        },
        {
          "internalType": "string",
          "name": "orderHash",
          "type": "string"
        },
        {
          "internalType": "uint256",
          "name": "timestamp",
          "type": "uint256"
        }
      ],
      "stateMutability": "view",
      "type": "function"
    }
  ],
  "bytecode": "0x608060405234801561001057600080fd5b50610a15806100206000396000f3fe608060405234801561001057600080fd5b50600436106100415760003560e01c8063040875fc146100465780630f7ee1ec14610064578063121bb52114610099575b600080fd5b61004e6100b5565b60405161005b9190610331565b60405180910390f35b61007e6004803603810190610079919061038c565b6100c1565b60405161009096959493929190610449565b60405180910390f35b6100b360048036038101906100ae91906105ed565b61021d565b005b60008080549050905090565b600081815481106100d157600080fd5b90600052602060002090600602016000915090508060000154908060010180546100fa906106cf565b80601f0160208091040260200160405190810160405280929190818152602001828054610126906106cf565b80156101735780601f1061014857610100808354040283529160200191610173565b820191906000526020600020905b81548152906001019060200180831161015657829003601f168201915b505050505090806002015490806003015490806004018054610194906106cf565b80601f01602080910402602001604051908101604052809291908181526020018280546101c0906106cf565b801561020d5780601f106101e25761010080835404028352916020019161020d565b820191906000526020600020905b8154815290600101906020018083116101f057829003601f168201915b5050505050908060050154905086565b600042905060006040518060c0016040528088815260200187815260200186815260200185815260200184815260200183815250908060018154018082558091505060019003906000526020600020906006020160009091909190915060008201518160000155602082015181600101908161029991906108ac565b50604082015181600201556060820151816003015560808201518160040190816102c391906108ac565b5060a082015181600501555050857f29f7ce7f699cb480248dc8a1f211577ea5686e79c632f3668da0a96ebb68b8e0868686868660405161030895949392919061097e565b60405180910390a2505050505050565b6000819050919050565b61032b81610318565b82525050565b60006020820190506103466000830184610322565b92915050565b6000604051905090565b600080fd5b600080fd5b61036981610318565b811461037457600080fd5b50565b60008135905061038681610360565b92915050565b6000602082840312156103a2576103a1610356565b5b60006103b084828501610377565b91505092915050565b600081519050919050565b600082825260208201905092915050565b60005b838110156103f35780820151818401526020810190506103d8565b60008484015250505050565b6000601f19601f8301169050919050565b600061041b826103b9565b61042581856103c4565b93506104358185602086016103d5565b61043e816103ff565b840191505092915050565b600060c08201905061045e6000830189610322565b81810360208301526104708188610410565b905061047f6040830187610322565b61048c6060830186610322565b818103608083015261049e8185610410565b90506104ad60a0830184610322565b979650505050505050565b600080fd5b600080fd5b7f4e487b7100000000000000000000000000000000000000000000000000000000600052604160045260246000fd5b6104fa826103ff565b810181811067ffffffffffffffff82111715610519576105186104c2565b5b80604052505050565b600061052c61034c565b905061053882826104f1565b919050565b600067ffffffffffffffff821115610558576105576104c2565b5b610561826103ff565b9050602081019050919050565b82818337600083830152505050565b600061059061058b8461053d565b610522565b9050828152602081018484840111156105ac576105ab6104bd565b5b6105b784828561056e565b509392505050565b600082601f8301126105d4576105d36104b8565b5b81356105e484826020860161057d565b91505092915050565b600080600080600060a0868803121561060957610608610356565b5b600061061788828901610377565b955050602086013567ffffffffffffffff8111156106385761063761035b565b5b610644888289016105bf565b945050604061065588828901610377565b935050606061066688828901610377565b925050608086013567ffffffffffffffff8111156106875761068661035b565b5b610693888289016105bf565b9150509295509295909350565b7f4e487b7100000000000000000000000000000000000000000000000000000000600052602260045260246000fd5b600060028204905060018216806106e757607f821691505b6020821081036106fa576106f96106a0565b5b50919050565b60008190508160005260206000209050919050565b60006020601f8301049050919050565b600082821b905092915050565b6000600883026107627fffffffffffffffffffffffffffffffffffffffffffffffffffffffffffffffff82610725565b61076c8683610725565b95508019841693508086168417925050509392505050565b6000819050919050565b60006107a96107a461079f84610318565b610784565b610318565b9050919050565b6000819050919050565b6107c38361078e565b6107d76107cf826107b0565b848454610732565b825550505050565b600090565b6107ec6107df565b6107f78184846107ba565b505050565b5b8181101561081b576108106000826107e4565b6001810190506107fd565b5050565b601f8211156108605761083181610700565b61083a84610715565b81016020851015610849578190505b61085d61085585610715565b8301826107fc565b50505b505050565b600082821c905092915050565b600061088360001984600802610865565b1980831691505092915050565b600061089c8383610872565b9150826002028217905092915050565b6108b5826103b9565b67ffffffffffffffff8111156108ce576108cd6104c2565b5b6108d882546106cf565b6108e382828561081f565b600060209050601f8311600181146109165760008415610904578287015190505b61090e8582610890565b865550610976565b601f19841661092486610700565b60005b8281101561094c57848901518255600182019150602085019450602081019050610927565b868310156109695784890151610965601f891682610872565b8355505b6001600288020188555050505b505050505050565b600060a08201905081810360008301526109988188610410565b90506109a76020830187610322565b6109b46040830186610322565b81810360608301526109c68185610410565b90506109d56080830184610322565b969550505050505056fea264697066735822122000b02d523bb1cee5d9d21aab7086209d3f7267eac798a5c2ec7a1afb81ad657564736f6c63430008140033",
  "linkReferences": {},
  "deployedLinkReferences": {}
}